{
  "contractName": "Bank",
  "abi": [
    {
      "constant": true,
      "inputs": [
        {
          "name": "",
          "type": "address"
        }
      ],
      "name": "clientList",
      "outputs": [
        {
          "name": "_address",
          "type": "address"
        },
        {
          "name": "deposit",
          "type": "uint256"
        }
      ],
      "payable": false,
      "stateMutability": "view",
      "type": "function",
      "signature": "0x623de5ff"
    },
    {
      "inputs": [],
      "payable": true,
      "stateMutability": "payable",
      "type": "constructor",
      "signature": "constructor"
    },
    {
      "payable": true,
      "stateMutability": "payable",
      "type": "fallback"
    },
    {
      "constant": false,
      "inputs": [],
      "name": "enroll",
      "outputs": [],
      "payable": false,
      "stateMutability": "nonpayable",
      "type": "function",
      "signature": "0xe65f2a7e"
    },
    {
      "constant": true,
      "inputs": [],
      "name": "getClientCounter",
      "outputs": [
        {
          "name": "",
          "type": "uint256"
        }
      ],
      "payable": false,
      "stateMutability": "view",
      "type": "function",
      "signature": "0x016afb02"
    },
    {
      "constant": false,
      "inputs": [],
      "name": "addDeposit",
      "outputs": [],
      "payable": true,
      "stateMutability": "payable",
      "type": "function",
      "signature": "0x4a58db19"
    },
    {
      "constant": false,
      "inputs": [
        {
          "name": "amount",
          "type": "uint256"
        }
      ],
      "name": "withdraw",
      "outputs": [],
      "payable": true,
      "stateMutability": "payable",
      "type": "function",
      "signature": "0x2e1a7d4d"
    },
    {
      "constant": true,
      "inputs": [
        {
          "name": "account",
          "type": "address"
        }
      ],
      "name": "checkDeposit",
      "outputs": [
        {
          "name": "",
          "type": "uint256"
        }
      ],
      "payable": false,
      "stateMutability": "view",
      "type": "function",
      "signature": "0xadf75a69"
    }
  ],
  "bytecode": "0x60806040526801a055690d9db80000341415156100aa576040517f08c379a00000000000000000000000000000000000000000000000000000000081526004018080602001828103825260308152602001807f496e697469616c2066756e64696e67206f66203330206574686572207265717581526020017f6972656420666f7220726577617264730000000000000000000000000000000081525060400191505060405180910390fd5b336000806101000a81548173ffffffffffffffffffffffffffffffffffffffff021916908373ffffffffffffffffffffffffffffffffffffffff160217905550600060028190555061053b806101016000396000f300608060405260043610610078576000357c0100000000000000000000000000000000000000000000000000000000900463ffffffff168063016afb021461007a5780632e1a7d4d146100a55780634a58db19146100c5578063623de5ff146100cf578063adf75a6914610159578063e65f2a7e146101b0575b005b34801561008657600080fd5b5061008f6101c7565b6040518082815260200191505060405180910390f35b6100c3600480360381019080803590602001909291905050506101d1565b005b6100cd610349565b005b3480156100db57600080fd5b50610110600480360381019080803573ffffffffffffffffffffffffffffffffffffffff16906020019092919050505061039b565b604051808373ffffffffffffffffffffffffffffffffffffffff1673ffffffffffffffffffffffffffffffffffffffff1681526020018281526020019250505060405180910390f35b34801561016557600080fd5b5061019a600480360381019080803573ffffffffffffffffffffffffffffffffffffffff1690602001909291905050506103df565b6040518082815260200191505060405180910390f35b3480156101bc57600080fd5b506101c561042b565b005b6000600254905090565b80600160003373ffffffffffffffffffffffffffffffffffffffff1673ffffffffffffffffffffffffffffffffffffffff1681526020019081526020016000206001015410156102af576040517f08c379a00000000000000000000000000000000000000000000000000000000081526004018080602001828103825260278152602001807f6e6f7420656e6f756768206465706f73697420746f206d616b6520746865207781526020017f697468647261770000000000000000000000000000000000000000000000000081525060400191505060405180910390fd5b80600160003373ffffffffffffffffffffffffffffffffffffffff1673ffffffffffffffffffffffffffffffffffffffff168152602001908152602001600020600101600082825403925050819055503373ffffffffffffffffffffffffffffffffffffffff166108fc829081150290604051600060405180830381858888f19350505050158015610345573d6000803e3d6000fd5b5050565b34600160003373ffffffffffffffffffffffffffffffffffffffff1673ffffffffffffffffffffffffffffffffffffffff16815260200190815260200160002060010160008282540192505081905550565b60016020528060005260406000206000915090508060000160009054906101000a900473ffffffffffffffffffffffffffffffffffffffff16908060010154905082565b6000600160008373ffffffffffffffffffffffffffffffffffffffff1673ffffffffffffffffffffffffffffffffffffffff168152602001908152602001600020600101549050919050565b674563918244f40000600160003373ffffffffffffffffffffffffffffffffffffffff1673ffffffffffffffffffffffffffffffffffffffff1681526020019081526020016000206001018190555033600160003373ffffffffffffffffffffffffffffffffffffffff1673ffffffffffffffffffffffffffffffffffffffff16815260200190815260200160002060000160006101000a81548173ffffffffffffffffffffffffffffffffffffffff021916908373ffffffffffffffffffffffffffffffffffffffff1602179055506002600081548092919060010191905055505600a165627a7a72305820cb763cec30fe04ca36e8d54f5337d74e84d5531de20c3fc83f41ac08ed49b5980029",
  "source": "pragma solidity ^0.4.24;\ncontract Bank {\n    struct Client {\n        address _address; // address of client\n        uint deposit;\n    }\n    \n    address owner;\n    mapping(address => Client) public clientList;\n    uint clientCounter;\n\n    constructor() public payable {\n        require(msg.value == 30 ether, \"Initial funding of 30 ether required for rewards\");\n        /* Set the owner to the creator of this contract */\n        owner = msg.sender;\n        clientCounter = 0;\n    }\n\n    function enroll() public {\n        clientList[msg.sender].deposit = 5 ether;\n        clientList[msg.sender]._address = msg.sender;\n        clientCounter++;\n    }\n\n    function getClientCounter() public view returns(uint){\n        return clientCounter;\n    }\n\n    function addDeposit() public payable {\n        clientList[msg.sender].deposit += msg.value;\n    }\n\n    function withdraw(uint amount) public payable {\n        if (clientList[msg.sender].deposit < amount){\n            revert(\"not enough deposit to make the withdraw\");\n        }else {\n            clientList[msg.sender].deposit -= amount;\n            msg.sender.transfer(amount);\n        }\n    }\n\n    function checkDeposit(address account) public view returns (uint) {\n        return clientList[account].deposit;\n    }\n\n    function () public payable {\n        \n    }\n}\n\ncontract Client {\n    address owner; // this client's address\n    Bank bank; // the bank that this client connected with\n\n    constructor(address _referBank){\n        owner = msg.sender;\n        bank = Bank(_referBank);\n    }\n\n    function register() public {\n        bank.enroll();\n    }\n\n    function addDeposit() public payable {\n        bank.addDeposit();\n    }\n\n    function withdraw(uint amount) public payable{\n        bank.withdraw(amount);\n    }\n\n    function checkDeposit(address account) public view returns (uint) {\n        return bank.checkDeposit(account);\n    }\n\n    // function checkDeposit(address account) public view returns (uint) {\n    //     return clientList[account].deposit;\n    // }\n\n    function () public payable {\n        // owner.transfer(this.balance);\n    }\n}",
  "sourcePath": "/home/wei/Desktop/uni-bonn/CSCW/bank-customer/contracts/contracts.sol",
  "compiler": {
    "name": "solc",
    "version": "0.4.24+commit.e67f0147.Emscripten.clang"
  },
  "schemaVersion": "3.0.0",
  "updatedAt": "2019-01-01T12:27:31.119Z",
  "devdoc": {
    "methods": {}
  },
  "userdoc": {
    "methods": {}
  }
}