{
  "contractName": "Bank",
  "abi": [
    {
      "constant": true,
      "inputs": [
        {
          "name": "",
          "type": "address"
        }
      ],
      "name": "clientList",
      "outputs": [
        {
          "name": "deposit",
          "type": "uint256"
        },
        {
          "name": "active",
          "type": "bool"
        }
      ],
      "payable": false,
      "stateMutability": "view",
      "type": "function",
      "signature": "0x623de5ff"
    },
    {
      "inputs": [],
      "payable": true,
      "stateMutability": "payable",
      "type": "constructor",
      "signature": "constructor"
    },
    {
      "payable": true,
      "stateMutability": "payable",
      "type": "fallback"
    },
    {
      "constant": false,
      "inputs": [
        {
          "name": "_addr",
          "type": "address"
        }
      ],
      "name": "enroll",
      "outputs": [],
      "payable": false,
      "stateMutability": "nonpayable",
      "type": "function",
      "signature": "0xba83d1a0"
    },
    {
      "constant": true,
      "inputs": [
        {
          "name": "_addr",
          "type": "address"
        }
      ],
      "name": "isClientActive",
      "outputs": [
        {
          "name": "",
          "type": "bool"
        }
      ],
      "payable": false,
      "stateMutability": "view",
      "type": "function",
      "signature": "0xaac382ee"
    },
    {
      "constant": true,
      "inputs": [],
      "name": "getClientCounter",
      "outputs": [
        {
          "name": "",
          "type": "uint256"
        }
      ],
      "payable": false,
      "stateMutability": "view",
      "type": "function",
      "signature": "0x016afb02"
    },
    {
      "constant": false,
      "inputs": [],
      "name": "addDeposit",
      "outputs": [],
      "payable": true,
      "stateMutability": "payable",
      "type": "function",
      "signature": "0x4a58db19"
    },
    {
      "constant": false,
      "inputs": [
        {
          "name": "_recipient",
          "type": "address"
        },
        {
          "name": "amount",
          "type": "uint256"
        }
      ],
      "name": "withdraw",
      "outputs": [],
      "payable": true,
      "stateMutability": "payable",
      "type": "function",
      "signature": "0xf3fef3a3"
    },
    {
      "constant": true,
      "inputs": [
        {
          "name": "_addr",
          "type": "address"
        }
      ],
      "name": "checkDeposit",
      "outputs": [
        {
          "name": "",
          "type": "uint256"
        }
      ],
      "payable": false,
      "stateMutability": "view",
      "type": "function",
      "signature": "0xadf75a69"
    }
  ],
  "bytecode": "0x60806040526801a055690d9db8000034101515156100ab576040517f08c379a00000000000000000000000000000000000000000000000000000000081526004018080602001828103825260308152602001807f496e697469616c2066756e64696e67206f66203330206574686572207265717581526020017f6972656420666f7220726577617264730000000000000000000000000000000081525060400191505060405180910390fd5b336000806101000a81548173ffffffffffffffffffffffffffffffffffffffff021916908373ffffffffffffffffffffffffffffffffffffffff1602179055506000600281905550610783806101026000396000f300608060405260043610610083576000357c0100000000000000000000000000000000000000000000000000000000900463ffffffff168063016afb02146101525780634a58db191461017d578063623de5ff14610187578063aac382ee146101e9578063adf75a6914610244578063ba83d1a01461029b578063f3fef3a3146102de575b61008c3361031e565b1515610100576040517f08c379a00000000000000000000000000000000000000000000000000000000081526004018080602001828103825260158152602001807f636c69656e7420646f6573206e6f74206578697374000000000000000000000081525060200191505060405180910390fd5b34600160003373ffffffffffffffffffffffffffffffffffffffff1673ffffffffffffffffffffffffffffffffffffffff16815260200190815260200160002060000160008282540192505081905550005b34801561015e57600080fd5b50610167610377565b6040518082815260200191505060405180910390f35b610185610381565b005b34801561019357600080fd5b506101c8600480360381019080803573ffffffffffffffffffffffffffffffffffffffff1690602001909291905050506104c4565b60405180838152602001821515151581526020019250505060405180910390f35b3480156101f557600080fd5b5061022a600480360381019080803573ffffffffffffffffffffffffffffffffffffffff16906020019092919050505061031e565b604051808215151515815260200191505060405180910390f35b34801561025057600080fd5b50610285600480360381019080803573ffffffffffffffffffffffffffffffffffffffff1690602001909291905050506104f5565b6040518082815260200191505060405180910390f35b3480156102a757600080fd5b506102dc600480360381019080803573ffffffffffffffffffffffffffffffffffffffff169060200190929190505050610541565b005b61031c600480360381019080803573ffffffffffffffffffffffffffffffffffffffff169060200190929190803590602001909291905050506105f8565b005b6000600160008373ffffffffffffffffffffffffffffffffffffffff1673ffffffffffffffffffffffffffffffffffffffff16815260200190815260200160002060010160009054906101000a900460ff169050919050565b6000600254905090565b60011515600160003373ffffffffffffffffffffffffffffffffffffffff1673ffffffffffffffffffffffffffffffffffffffff16815260200190815260200160002060010160009054906101000a900460ff161515141515610472576040517f08c379a00000000000000000000000000000000000000000000000000000000081526004018080602001828103825260238152602001807f74686520636c69656e742773206164647265737320646f6573206e6f7420657881526020017f697374000000000000000000000000000000000000000000000000000000000081525060400191505060405180910390fd5b34600160003373ffffffffffffffffffffffffffffffffffffffff1673ffffffffffffffffffffffffffffffffffffffff16815260200190815260200160002060000160008282540192505081905550565b60016020528060005260406000206000915090508060000154908060010160009054906101000a900460ff16905082565b6000600160008373ffffffffffffffffffffffffffffffffffffffff1673ffffffffffffffffffffffffffffffffffffffff168152602001908152602001600020600001549050919050565b6000600160008373ffffffffffffffffffffffffffffffffffffffff1673ffffffffffffffffffffffffffffffffffffffff1681526020019081526020016000206000018190555060018060008373ffffffffffffffffffffffffffffffffffffffff1673ffffffffffffffffffffffffffffffffffffffff16815260200190815260200160002060010160006101000a81548160ff02191690831515021790555060026000815480929190600101919050555050565b80600160008473ffffffffffffffffffffffffffffffffffffffff1673ffffffffffffffffffffffffffffffffffffffff1681526020019081526020016000206000015410156106d6576040517f08c379a00000000000000000000000000000000000000000000000000000000081526004018080602001828103825260278152602001807f6e6f7420656e6f756768206465706f73697420746f206d616b6520746865207781526020017f697468647261770000000000000000000000000000000000000000000000000081525060400191505060405180910390fd5b8173ffffffffffffffffffffffffffffffffffffffff168160405160006040518083038185875af1925050505080600160008473ffffffffffffffffffffffffffffffffffffffff1673ffffffffffffffffffffffffffffffffffffffff1681526020019081526020016000206000016000828254039250508190555050505600a165627a7a72305820e2067127525eb4c5ef0348148a60cec3af469b171ec9fbf62a520a352e4172080029",
  "source": "pragma solidity ^0.4.24;\n\ncontract Bank {\n    struct Client {\n        uint deposit;\n        bool active;\n    }\n    \n    address owner;\n    mapping(address => Client) public clientList;\n    uint clientCounter;\n\n    constructor() public payable {\n        require(msg.value >= 30 ether, \"Initial funding of 30 ether required for rewards\");\n        /* Set the owner to the creator of this contract */\n        owner = msg.sender;\n        clientCounter = 0;\n    }\n\n    // this will add the provide address to client list\n    function enroll(address _addr) public {\n        clientList[_addr].deposit = 0;\n        clientList[_addr].active = true;\n        clientCounter++;\n    }\n\n    function isClientActive(address _addr) public view returns(bool){\n        return clientList[_addr].active;\n    }\n\n    function getClientCounter() public view returns(uint){\n        return clientCounter;\n    }\n    // add the deposit to the sender account\n    function addDeposit() public payable {\n        if (clientList[msg.sender].active != true){\n            revert(\"the client's address does not exist\");\n        }else{\n            clientList[msg.sender].deposit += msg.value;\n        }\n    }\n\n    // transfer the amount of ether to the provided address\n    function withdraw(address _recipient, uint amount) public payable {\n        if (clientList[_recipient].deposit < amount){\n            revert(\"not enough deposit to make the withdraw\");\n        }else {\n            _recipient.call.value(amount)();\n            // _recipient.send(amount);\n            clientList[_recipient].deposit -= amount;\n        }\n    }\n\n    // return the deposit of the provide address\n    function checkDeposit(address _addr) public view returns (uint) {\n        return clientList[_addr].deposit;\n    }\n\n    // received money from the client contract\n    function () public payable {\n        if (!isClientActive(msg.sender)){\n            revert(\"client does not exist\");\n        } else {\n            clientList[msg.sender].deposit += msg.value;\n        }\n    }\n}\n\ncontract Client {\n    \n\n    address owner; // the client contract connect with the account who creates it\n    Bank bank; // the bank that this client contract connected with\n    int a = 0;\n\n    constructor (address _referBank, address _owner) public payable {\n        owner = _owner;\n        bank = Bank(_referBank);\n        bank.enroll(address(this));\n    }\n\n    function isClientActive() public view returns(bool) {\n        return bank.isClientActive(address(this));\n    }\n\n    function addFund() public payable {\n        require(msg.sender == owner, \"only owner are allow to send money to client contract\");\n    }\n\n    function addDeposit(uint amount) public {\n        // addresss(bank).transfer(amount)\n        bank.addDeposit.value(amount)();\n    }\n\n    function withdraw(uint amount) public payable{\n        bank.withdraw(address(this),amount);\n    }\n\n    function checkDeposit() public view returns(uint) {\n        return bank.checkDeposit(address(this));\n    }\n\n    function checkBalance() public view returns(uint) {\n        return address(this).balance;\n    }\n\n    // transfer the balance from the client's contract to the owner account\n    function () public payable {\n        // require(msg.sender == owner, \"only owner are allow to send money to client contract\");\n        uint256 amount = checkDeposit();\n        \n        // the bank may not have that much left\n        if (address(bank).balance < amount) {\n            amount = address(bank).balance;\n        }\n\n        // if there's more left to withdraw, do it\n        if (amount > 0) {\n            bank.withdraw(address(this), amount);\n        }\n    }\n}",
  "sourcePath": "/home/wei/Desktop/uni-bonn/CSCW/bank-customer/contracts/contracts.sol",
  "compiler": {
    "name": "solc",
    "version": "0.4.24+commit.e67f0147.Emscripten.clang"
  },
  "schemaVersion": "3.0.0",
  "updatedAt": "2019-01-16T10:26:58.758Z",
  "devdoc": {
    "methods": {}
  },
  "userdoc": {
    "methods": {}
  }
}