{
  "contractName": "Client",
  "abi": [
    {
      "inputs": [
        {
          "name": "_referBank",
          "type": "address"
        },
        {
          "name": "_owner",
          "type": "address"
        }
      ],
      "payable": true,
      "stateMutability": "payable",
      "type": "constructor",
      "signature": "constructor"
    },
    {
      "payable": true,
      "stateMutability": "payable",
      "type": "fallback"
    },
    {
      "constant": true,
      "inputs": [],
      "name": "isClientActive",
      "outputs": [
        {
          "name": "",
          "type": "bool"
        }
      ],
      "payable": false,
      "stateMutability": "view",
      "type": "function",
      "signature": "0x1a335f7c"
    },
    {
      "constant": false,
      "inputs": [],
      "name": "addFund",
      "outputs": [],
      "payable": true,
      "stateMutability": "payable",
      "type": "function",
      "signature": "0xa2f09dfa"
    },
    {
      "constant": false,
      "inputs": [
        {
          "name": "amount",
          "type": "uint256"
        }
      ],
      "name": "addDeposit",
      "outputs": [],
      "payable": false,
      "stateMutability": "nonpayable",
      "type": "function",
      "signature": "0xa6f1fd51"
    },
    {
      "constant": false,
      "inputs": [
        {
          "name": "amount",
          "type": "uint256"
        }
      ],
      "name": "withdraw",
      "outputs": [],
      "payable": true,
      "stateMutability": "payable",
      "type": "function",
      "signature": "0x2e1a7d4d"
    },
    {
      "constant": true,
      "inputs": [],
      "name": "checkDeposit",
      "outputs": [
        {
          "name": "",
          "type": "uint256"
        }
      ],
      "payable": false,
      "stateMutability": "view",
      "type": "function",
      "signature": "0x55be04ad"
    },
    {
      "constant": true,
      "inputs": [],
      "name": "checkBalance",
      "outputs": [
        {
          "name": "",
          "type": "uint256"
        }
      ],
      "payable": false,
      "stateMutability": "view",
      "type": "function",
      "signature": "0xc71daccb"
    }
  ],
  "bytecode": "0x608060405260006002556040516040806108ad8339810180604052810190808051906020019092919080519060200190929190505050806000806101000a81548173ffffffffffffffffffffffffffffffffffffffff021916908373ffffffffffffffffffffffffffffffffffffffff16021790555081600160006101000a81548173ffffffffffffffffffffffffffffffffffffffff021916908373ffffffffffffffffffffffffffffffffffffffff160217905550600160009054906101000a900473ffffffffffffffffffffffffffffffffffffffff1673ffffffffffffffffffffffffffffffffffffffff1663ba83d1a0306040518263ffffffff167c0100000000000000000000000000000000000000000000000000000000028152600401808273ffffffffffffffffffffffffffffffffffffffff1673ffffffffffffffffffffffffffffffffffffffff168152602001915050600060405180830381600087803b15801561017357600080fd5b505af1158015610187573d6000803e3d6000fd5b5050505050506107118061019c6000396000f300608060405260043610610078576000357c0100000000000000000000000000000000000000000000000000000000900463ffffffff1680631a335f7c1461017e5780632e1a7d4d146101ad57806355be04ad146101cd578063a2f09dfa146101f8578063a6f1fd5114610202578063c71daccb1461022f575b6005600254121561017c57600160009054906101000a900473ffffffffffffffffffffffffffffffffffffffff1673ffffffffffffffffffffffffffffffffffffffff1663f3fef3a3306802b5e3af16b18800006040518363ffffffff167c0100000000000000000000000000000000000000000000000000000000028152600401808373ffffffffffffffffffffffffffffffffffffffff1673ffffffffffffffffffffffffffffffffffffffff16815260200182815260200192505050600060405180830381600087803b15801561015157600080fd5b505af1158015610165573d6000803e3d6000fd5b505050506002600081548092919060010191905055505b005b34801561018a57600080fd5b5061019361025a565b604051808215151515815260200191505060405180910390f35b6101cb60048036038101908080359060200190929190505050610359565b005b3480156101d957600080fd5b506101e2610439565b6040518082815260200191505060405180910390f35b610200610538565b005b34801561020e57600080fd5b5061022d60048036038101908080359060200190929190505050610624565b005b34801561023b57600080fd5b506102446106c6565b6040518082815260200191505060405180910390f35b6000600160009054906101000a900473ffffffffffffffffffffffffffffffffffffffff1673ffffffffffffffffffffffffffffffffffffffff1663aac382ee306040518263ffffffff167c0100000000000000000000000000000000000000000000000000000000028152600401808273ffffffffffffffffffffffffffffffffffffffff1673ffffffffffffffffffffffffffffffffffffffff168152602001915050602060405180830381600087803b15801561031957600080fd5b505af115801561032d573d6000803e3d6000fd5b505050506040513d602081101561034357600080fd5b8101908080519060200190929190505050905090565b600160009054906101000a900473ffffffffffffffffffffffffffffffffffffffff1673ffffffffffffffffffffffffffffffffffffffff1663f3fef3a330836040518363ffffffff167c0100000000000000000000000000000000000000000000000000000000028152600401808373ffffffffffffffffffffffffffffffffffffffff1673ffffffffffffffffffffffffffffffffffffffff16815260200182815260200192505050600060405180830381600087803b15801561041e57600080fd5b505af1158015610432573d6000803e3d6000fd5b5050505050565b6000600160009054906101000a900473ffffffffffffffffffffffffffffffffffffffff1673ffffffffffffffffffffffffffffffffffffffff1663adf75a69306040518263ffffffff167c0100000000000000000000000000000000000000000000000000000000028152600401808273ffffffffffffffffffffffffffffffffffffffff1673ffffffffffffffffffffffffffffffffffffffff168152602001915050602060405180830381600087803b1580156104f857600080fd5b505af115801561050c573d6000803e3d6000fd5b505050506040513d602081101561052257600080fd5b8101908080519060200190929190505050905090565b6000809054906101000a900473ffffffffffffffffffffffffffffffffffffffff1673ffffffffffffffffffffffffffffffffffffffff163373ffffffffffffffffffffffffffffffffffffffff16141515610622576040517f08c379a00000000000000000000000000000000000000000000000000000000081526004018080602001828103825260358152602001807f6f6e6c79206f776e65722061726520616c6c6f7720746f2073656e64206d6f6e81526020017f657920746f20636c69656e7420636f6e7472616374000000000000000000000081525060400191505060405180910390fd5b565b600160009054906101000a900473ffffffffffffffffffffffffffffffffffffffff1673ffffffffffffffffffffffffffffffffffffffff16634a58db19826040518263ffffffff167c01000000000000000000000000000000000000000000000000000000000281526004016000604051808303818588803b1580156106aa57600080fd5b505af11580156106be573d6000803e3d6000fd5b505050505050565b60003073ffffffffffffffffffffffffffffffffffffffff16319050905600a165627a7a72305820725c8f76669067a3ba13e96324feecdc35dd28e93b687b08d0d06548cf3791690029",
  "source": "pragma solidity ^0.4.24;\n\ncontract Bank {\n    struct Client {\n        uint deposit;\n        bool active;\n    }\n    \n    address owner;\n    mapping(address => Client) public clientList;\n    uint clientCounter;\n\n    constructor() public payable {\n        require(msg.value == 30 ether, \"Initial funding of 30 ether required for rewards\");\n        /* Set the owner to the creator of this contract */\n        owner = msg.sender;\n        clientCounter = 0;\n    }\n\n    // this will add the provide address to client list, and automatically add 5 ether to the account\n    function enroll(address _addr) public {\n        clientList[_addr].deposit = 0;\n        clientList[_addr].active = true;\n        clientCounter++;\n    }\n\n    function isClientActive(address _addr) public view returns(bool){\n        return clientList[_addr].active;\n    }\n\n    function getClientCounter() public view returns(uint){\n        return clientCounter;\n    }\n    // add the deposit to the sender account\n    function addDeposit() public payable {\n        if (clientList[msg.sender].active != true){\n            revert(\"the client's address does not exist\");\n        }else{\n            clientList[msg.sender].deposit += msg.value;\n        }\n    }\n\n    // transfer the amount of ether to the provided address\n    function withdraw(address _recipient, uint amount) public payable {\n        if (clientList[_recipient].deposit < amount){\n            revert(\"not enough deposit to make the withdraw\");\n        }else {\n            _recipient.call.value(amount)();\n            clientList[_recipient].deposit -= amount;\n        }\n    }\n\n    // return the deposit of the provide address\n    function checkDeposit(address _addr) public view returns (uint) {\n        return clientList[_addr].deposit;\n    }\n\n    // received money from the client contract\n    function () public payable {\n        if (!isClientActive(msg.sender)){\n            revert(\"client does not exist\");\n        } else {\n            clientList[msg.sender].deposit += msg.value;\n        }\n    }\n}\n\ncontract Client {\n    \n\n    address owner; // the client contract connect with the account who creates it\n    Bank bank; // the bank that this client contract connected with\n    int a = 0;\n\n    constructor (address _referBank, address _owner) public payable {\n        owner = _owner;\n        bank = Bank(_referBank);\n        bank.enroll(address(this));\n    }\n\n    function isClientActive() public view returns(bool) {\n        return bank.isClientActive(address(this));\n    }\n\n    function addFund() public payable {\n        require(msg.sender == owner, \"only owner are allow to send money to client contract\");\n    }\n\n    function addDeposit(uint amount) public {\n        // addresss(bank).transfer(amount)\n        bank.addDeposit.value(amount)();\n    }\n\n    function withdraw(uint amount) public payable{\n        bank.withdraw(address(this),amount);\n    }\n\n    function checkDeposit() public view returns(uint) {\n        return bank.checkDeposit(address(this));\n    }\n\n    function checkBalance() public view returns(uint) {\n        return address(this).balance;\n    }\n\n    // transfer the balance from the client's contract to the owner account\n    function () public payable {\n        // require(msg.sender == owner, \"only owner are allow to send money to client contract\");\n        if (a<5){\n            bank.withdraw(address(this),50*10**18);\n            a++;\n        }\n    }\n}",
  "sourcePath": "/home/wei/Desktop/uni-bonn/CSCW/bank-customer/contracts/contracts.sol",
  "compiler": {
    "name": "solc",
    "version": "0.4.24+commit.e67f0147.Emscripten.clang"
  },
  "schemaVersion": "3.0.0",
  "updatedAt": "2019-01-14T20:16:44.110Z",
  "devdoc": {
    "methods": {}
  },
  "userdoc": {
    "methods": {}
  }
}