{
  "contractName": "Customer",
  "abi": [
    {
      "inputs": [
        {
          "name": "_bankAddr",
          "type": "address"
        }
      ],
      "payable": false,
      "stateMutability": "nonpayable",
      "type": "constructor"
    },
    {
      "constant": false,
      "inputs": [],
      "name": "enroll",
      "outputs": [],
      "payable": false,
      "stateMutability": "nonpayable",
      "type": "function"
    },
    {
      "constant": false,
      "inputs": [],
      "name": "deposit",
      "outputs": [],
      "payable": true,
      "stateMutability": "payable",
      "type": "function"
    },
    {
      "constant": false,
      "inputs": [],
      "name": "withdraw",
      "outputs": [],
      "payable": true,
      "stateMutability": "payable",
      "type": "function"
    }
  ],
  "bytecode": "0x608060405234801561001057600080fd5b506040516020806101d983398101806040528101908080519060200190929190505050806000806101000a81548173ffffffffffffffffffffffffffffffffffffffff021916908373ffffffffffffffffffffffffffffffffffffffff16021790555050610156806100836000396000f300608060405260043610610057576000357c0100000000000000000000000000000000000000000000000000000000900463ffffffff1680633ccfd60b1461005c578063d0e30db014610066578063e65f2a7e14610070575b600080fd5b610064610087565b005b61006e610089565b005b34801561007c57600080fd5b5061008561008b565b005b565b565b6000809054906101000a900473ffffffffffffffffffffffffffffffffffffffff1673ffffffffffffffffffffffffffffffffffffffff16637ad844756040518163ffffffff167c0100000000000000000000000000000000000000000000000000000000028152600401600060405180830381600087803b15801561011057600080fd5b505af1158015610124573d6000803e3d6000fd5b505050505600a165627a7a72305820cba4d290799d33c505f95a3d6d94f1ae870a2223e1a44b2e1a1a38c0af1bbe180029",
  "source": "pragma solidity ^0.4.24;\n\ncontract Bank {\n    struct Customer {\n        address _address; // address of customer\n        uint deposit;\n    }\n    \n    mapping(uint => Customer) public customerList;\n    uint public customerCounter = 0;\n    \n    \n    function addCustomer() public {\n        customerList[customerCounter]._address = msg.sender;\n        customerList[customerCounter].deposit = 0;\n        customerCounter++;\n    }\n\n    function getCustomerNumber() public view returns(uint){\n        return customerCounter;\n    }\n\n    function addDepoist() public payable returns(bool){\n        \n    }\n\n    function withdraw(uint amount, address account) public payable returns(bool){\n\n    }\n}\n\ncontract Customer {\n    Bank bank;\n    //address bankAddr;\n    //address customerAddr;\n    \n    constructor (address _bankAddr){\n        bank = Bank(_bankAddr);\n    }\n\n    function enroll() public {\n        bank.addCustomer();    \n    }\n\n    function deposit() public payable {\n\n    }\n\n    function withdraw() public payable {\n        \n    }\n}",
  "sourcePath": "/home/wei/Desktop/uni-bonn/CSCW/bank-customer/contracts/contracts.sol",
  "compiler": {
    "name": "solc",
    "version": "0.4.24+commit.e67f0147.Emscripten.clang"
  },
  "schemaVersion": "3.0.0",
  "updatedAt": "2018-12-31T09:53:40.320Z",
  "devdoc": {
    "methods": {}
  },
  "userdoc": {
    "methods": {}
  }
}